S01100005072616374696361322E73726563BA
S113000019C02BC02AC029C028C027C026C025C0BB
S113001024C023C022C021C020C01FC01EC01DC0D8
S11300201CC01BC01AC019C018C017C016C015C008
S113003014C013C011241FBECFEFD2E0DEBFCDBF6A
S113004011E0A0E0B1E0E2EBF0E002C005900D9217
S1130050A431B107D9F702D02AC0D2CFCF93DF930E
S1130060CDB7DEB764970FB6F894DEBF0FBECDBF31
S11300708FEF84B98AB987B988B188B984E1E0E09F
S1130080F1E0DE01119601900D928A95E1F786B1B7
S11300908F70E82FF0E0EE0FFF1F21E030E02C0F0F
S11300A03D1FE20FF31F908195B98BB9F0CFF894FF
S10500B0FFCF7C
S11300B27E0030006D00790033005B005F00700049
S10700C27F007B003C
S9030000FC
