S01100005072616374696361332E73726563B9
S113000019C02BC02AC029C028C027C026C025C0BB
S113001024C023C022C021C020C01FC01EC01DC0D8
S11300201CC01BC01AC019C018C017C016C015C008
S113003014C013C011241FBECFEFD2E0DEBFCDBF6A
S113004011E0A0E0B1E0EAE2F1E002C005900D9217
S1130050A431B107D9F702D066C0D2CFCF93DF93D2
S1130060CDB7DEB764970FB6F894DEBF0FBECDBF31
S11300708FEF84B987B98AB98BB18BB984E1E0E099
S1130080F1E0DE01119601900D928A95E1F78981E4
S113009085B9898188B92AE030E0E9B18E2F90E0F2
S11300A0B9011AD0DB01AF70BB27AA0FBB1F81E0D7
S11300B090E08C0F9D1FA80FB91F8C9185B9EF702C
S11300C0F0E0EE0FFF1F81E090E08C0F9D1FE80F22
S11300D0F91F808188B9E1CF97FB072E16F40094AD
S11300E006D077FD08D00BD007FC05D03EF49095E0
S11300F081959F4F0895709561957F4F0895AA1B30
S1130100BB1B51E107C0AA1FBB1FA617B70710F0FE
S1130110A61BB70B881F991F5A95A9F78095909530
S10D0120BC01CD010895F894FFCF4F
S113012A3F0006005B004F0066006D007D0007007B
S107013A7F006F00CF
S9030000FC
