S01100005072616374696361332E73726563B9
S113000019C02BC02AC029C028C027C026C025C0BB
S113001024C023C022C021C020C01FC01EC01DC0D8
S11300201CC01BC01AC019C018C017C016C015C008
S113003014C013C011241FBECFEFD2E0DEBFCDBF6A
S113004011E0A0E0B1E0EEEEF0E002C005900D9208
S1130050A431B107D9F702D048C0D2CFCF93DF93F0
S1130060CDB7DEB764970FB6F894DEBF0FBECDBF31
S11300708FEF84B98AB917B836B13F733F5F84E113
S1130080E0E0F1E0DE01119601900D928A95E1F72E
S113009080E04DEC27C0849F912D11249695969570
S11300A09695E92FF0E0EE0FFF1F61E070E06C0F12
S11300B07D1FE60FF71F208125B9990F292F220FE5
S11300C0220F920FE82FE91BF0E0EE0FFF1FE60F5F
S11300D0F71F90819BB9E7EAF1E63197F1F700C089
S11100E000008F5F8313D7CFFFCFF894FFCFBC
S11300EE3F0006005B004F0066006D007D000700B8
S10700FE7F006F000C
S9030000FC
