S01100005072616374696361312E73726563BB
S113000019C020C01FC01EC01DC01CC01BC01AC008
S113001019C018C017C016C015C014C013C012C030
S113002011C010C00FC00EC00DC00CC00BC00AC060
S113003009C008C011241FBECFEFD2E0DEBFCDBF80
S113004002D01DC0DDCF80E88AB980E090E050E0A6
S113005040E002C0852F942F9C012F5F3F4F85B94C
S11300606FE986E891E0615080409040E1F700C07C
S11300700000211561E0360769F3C901EDCFF8945A
S1050080FFCFAC
S9030000FC
