S01100005072616374696361352E73726563B7
S113000019C02BC02AC029C028C027C026C025C0BB
S113001024C023C022C021C020C01FC01EC01DC0D8
S11300201CC01BC01AC019C018C017C016C015C008
S113003014C013C011241FBECFEFD2E0DEBFCDBF6A
S113004011E0A0E0B1E0E2EDF0E002C005900D9215
S1130050A431B107D9F702D03AC0D2CFCF93DF93FE
S1130060CDB7DEB764970FB6F894DEBF0FBECDBF31
S11300708FEF84B98AB917B884E1E0E0F1E0DE01DA
S1130080119601900D928A95E1F780E090E021E0CD
S113009060E050E041E0FC01EE0FFF1FA1E0B0E0A2
S11300A0AC0FBD1FEA0FFB1F308135B9322F3095DD
S11300B03BB9E7EAF1E63197F1F700C00000220FFF
S11300C00196213440F3862F952F242FE4CFF89402
S10500D0FFCF5C
S11300D23F0006005B004F0066006D007D000700D4
S10700E27F006F0028
S9030000FC
