S01100005072616374696361342E73726563B8
S113000019C0B7C0C7C031C030C02FC02EC02DC06A
S11300102CC02BC02AC029C028C027C026C025C098
S113002024C023C022C021C020C01FC01EC01DC0C8
S11300301CC01BC011241FBECFEFD2E0DEBFCDBF5A
S113004011E0A0E0B1E0EAEBF1E002C005900D920E
S1130050A431B107D9F721E0A4E1B1E001C01D92B8
S1130060A731B207E1F702D0A6C0CACFCF93DF937E
S1130070CDB7DEB764970FB6F894DEBF0FBECDBF21
S11300808FEF84B987B981E08AB9F8948FE085BF8E
S113009083E08DBB8CBB84E1E0E0F1E0DE011196EE
S11300A001900D928A95E1F7789449E234E62DECBB
S11300B080911401880F982F990F990F890F9091AF
S11300C01501890F849FE12D1124E295EF70E39FC0
S11300D08019112480931601829FE12D1124E69545
S11300E0E695E695F0E0EE0FFF1F81E090E08C0FBF
S11300F09D1FE80FF91F808185B9E0911601E29FE9
S1130100812D1124869586958695880F982F990FB1
S1130110990F890FE81BF0E0EE0FFF1F81E090E0DC
S11301208C0F9D1FE80FF91F80819181082E892F64
S1130130000C881F990B000C881F991F8BB9E09144
S11301401601E29F812D1124869586958695880F48
S1130150982F990F990F890FE81BF0E0EE0FFF1FFE
S113016081E090E08C0F9D1FE80FF91F808188B912
S11301709FCF1F920F920FB60F9211248F938091ED
S113018015018F5F809315018F910F900FBE0F9013
S11301901F9018951F920F920FB60F9211248F93F0
S11301A0809114018F5F809314018F910F900FBE83
S10D01B00F901F901895F894FFCFEC
S11301BA3F0006005B004F0066006D007D000700EB
S10701CA7F006F003F
S9030000FC
