S01100005072616374696361342E73726563B8
S113000019C02BC02AC029C028C027C026C025C0BB
S113001024C023C022C021C020C01FC01EC01DC0D8
S11300201CC01BC01AC019C018C017C016C015C008
S113003014C013C011241FBECFEFD2E0DEBFCDBF6A
S113004011E0A0E0B1E0E2EFF0E002C005900D9213
S1130050A431B107D9F702D04AC0D2CFCF93DF93EE
S1130060CDB7DEB764970FB6F894DEBF0FBECDBF31
S11300708FEF84B98AB98CEF87B984E1E0E0F1E0CD
S1130080DE01119601900D928A95E1F790E03DEC26
S1130090309B0AC09F5F2FE34DE053E02150404066
S11300A05040E1F700C00000939F812D11248695F4
S11300B086958695E82FF0E0EE0FFF1F41E050E0B3
S11300C04C0F5D1FE40FF51F208125B9880F282FE1
S11300D0220F220F820FE92FE81BF0E0EE0FFF1F23
S11300E0E40FF51F80818BB988B118B8D1CFF8948B
S10500F0FFCF3C
S11300F23F0006005B004F0066006D007D000700B4
S10701027F006F0007
S9030000FC
